{
  "_format": "hh-sol-artifact-1",
  "contractName": "ZKVoting",
  "sourceName": "contracts/ZKVoting.sol",
  "abi": [
    {
      "inputs": [
        {
          "internalType": "uint256",
          "name": "_choiceCount",
          "type": "uint256"
        }
      ],
      "stateMutability": "nonpayable",
      "type": "constructor"
    },
    {
      "anonymous": false,
      "inputs": [
        {
          "indexed": false,
          "internalType": "bytes32",
          "name": "voterRoot",
          "type": "bytes32"
        },
        {
          "indexed": false,
          "internalType": "bytes32",
          "name": "votedRoot",
          "type": "bytes32"
        }
      ],
      "name": "MerkleRootsUpdated",
      "type": "event"
    },
    {
      "anonymous": false,
      "inputs": [
        {
          "indexed": true,
          "internalType": "address",
          "name": "previousOwner",
          "type": "address"
        },
        {
          "indexed": true,
          "internalType": "address",
          "name": "newOwner",
          "type": "address"
        }
      ],
      "name": "OwnershipTransferred",
      "type": "event"
    },
    {
      "anonymous": false,
      "inputs": [
        {
          "indexed": false,
          "internalType": "address",
          "name": "voter",
          "type": "address"
        },
        {
          "indexed": false,
          "internalType": "uint256",
          "name": "choice",
          "type": "uint256"
        },
        {
          "indexed": false,
          "internalType": "bytes32",
          "name": "nullifierHash",
          "type": "bytes32"
        }
      ],
      "name": "VoteCast",
      "type": "event"
    },
    {
      "inputs": [],
      "name": "choiceCount",
      "outputs": [
        {
          "internalType": "uint256",
          "name": "",
          "type": "uint256"
        }
      ],
      "stateMutability": "view",
      "type": "function"
    },
    {
      "inputs": [],
      "name": "getTotalVotes",
      "outputs": [
        {
          "internalType": "uint256",
          "name": "",
          "type": "uint256"
        }
      ],
      "stateMutability": "view",
      "type": "function"
    },
    {
      "inputs": [
        {
          "internalType": "uint256",
          "name": "_choice",
          "type": "uint256"
        }
      ],
      "name": "getVoteCount",
      "outputs": [
        {
          "internalType": "uint256",
          "name": "",
          "type": "uint256"
        }
      ],
      "stateMutability": "view",
      "type": "function"
    },
    {
      "inputs": [
        {
          "internalType": "address",
          "name": "",
          "type": "address"
        }
      ],
      "name": "hasVoted",
      "outputs": [
        {
          "internalType": "bool",
          "name": "",
          "type": "bool"
        }
      ],
      "stateMutability": "view",
      "type": "function"
    },
    {
      "inputs": [],
      "name": "owner",
      "outputs": [
        {
          "internalType": "address",
          "name": "",
          "type": "address"
        }
      ],
      "stateMutability": "view",
      "type": "function"
    },
    {
      "inputs": [],
      "name": "renounceOwnership",
      "outputs": [],
      "stateMutability": "nonpayable",
      "type": "function"
    },
    {
      "inputs": [
        {
          "internalType": "bytes32",
          "name": "_newRoot",
          "type": "bytes32"
        }
      ],
      "name": "setVotedMerkleRoot",
      "outputs": [],
      "stateMutability": "nonpayable",
      "type": "function"
    },
    {
      "inputs": [
        {
          "internalType": "bytes32",
          "name": "_newRoot",
          "type": "bytes32"
        }
      ],
      "name": "setVoterMerkleRoot",
      "outputs": [],
      "stateMutability": "nonpayable",
      "type": "function"
    },
    {
      "inputs": [
        {
          "internalType": "address",
          "name": "newOwner",
          "type": "address"
        }
      ],
      "name": "transferOwnership",
      "outputs": [],
      "stateMutability": "nonpayable",
      "type": "function"
    },
    {
      "inputs": [
        {
          "internalType": "uint256",
          "name": "_choice",
          "type": "uint256"
        },
        {
          "internalType": "bytes32",
          "name": "_nullifierHash",
          "type": "bytes32"
        },
        {
          "internalType": "bytes32[8]",
          "name": "_proof",
          "type": "bytes32[8]"
        }
      ],
      "name": "vote",
      "outputs": [],
      "stateMutability": "nonpayable",
      "type": "function"
    },
    {
      "inputs": [
        {
          "internalType": "uint256",
          "name": "",
          "type": "uint256"
        }
      ],
      "name": "voteCounts",
      "outputs": [
        {
          "internalType": "uint256",
          "name": "",
          "type": "uint256"
        }
      ],
      "stateMutability": "view",
      "type": "function"
    },
    {
      "inputs": [],
      "name": "votedMerkleRoot",
      "outputs": [
        {
          "internalType": "bytes32",
          "name": "",
          "type": "bytes32"
        }
      ],
      "stateMutability": "view",
      "type": "function"
    },
    {
      "inputs": [],
      "name": "voterMerkleRoot",
      "outputs": [
        {
          "internalType": "bytes32",
          "name": "",
          "type": "bytes32"
        }
      ],
      "stateMutability": "view",
      "type": "function"
    }
  ],
  "bytecode": "0x608060405234801561001057600080fd5b506040516106b83803806106b883398101604081905261002f91610099565b61003833610049565b61004133610049565b6003556100b2565b600080546001600160a01b038381166001600160a01b0319831681178455604051919092169283917f8be0079c531659141344cd1fd0a4f28419497f9722a3daafe3b4186f6b6457e09190a35050565b6000602082840312156100ab57600080fd5b5051919050565b6105f7806100c16000396000f3fe608060405234801561001057600080fd5b50600436106100cf5760003560e01c80638da5cb5b1161008c578063c77956bd11610066578063c77956bd14610195578063dd97c510146101a8578063ec37c3e5146101bb578063f2fde38b146101ce57600080fd5b80638da5cb5b1461015f5780639a0e7d661461017a578063b2c2f2e81461018257600080fd5b806309eef43e146100d4578063240815b71461010c5780632a69fb46146101235780633c3a220d1461012c57806364b200c11461014c578063715018a614610155575b600080fd5b6100f76100e23660046104f1565b60056020526000908152604090205460ff1681565b60405190151581526020015b60405180910390f35b61011560035481565b604051908152602001610103565b61011560015481565b61011561013a366004610521565b60046020526000908152604090205481565b61011560025481565b61015d6101e1565b005b6000546040516001600160a01b039091168152602001610103565b6101156101f5565b610115610190366004610521565b610237565b61015d6101a3366004610521565b610293565b61015d6101b6366004610521565b6102e0565b61015d6101c936600461053a565b610327565b61015d6101dc3660046104f1565b6103ce565b6101e9610447565b6101f360006104a1565b565b600080805b6003548110156102315760008181526004602052604090205461021d908361058f565b915080610229816105a8565b9150506101fa565b50919050565b600060035482106102805760405162461bcd60e51b815260206004820152600e60248201526d496e76616c69642063686f69636560901b60448201526064015b60405180910390fd5b5060009081526004602052604090205490565b61029b610447565b600281905560015460408051918252602082018390527f95a640352dcd90c4adfb94305e024b7754d086930a98dd85b8807e6b10de321391015b60405180910390a150565b6102e8610447565b60018190556002546040805183815260208101929092527f95a640352dcd90c4adfb94305e024b7754d086930a98dd85b8807e6b10de321391016102d5565b60035483106103695760405162461bcd60e51b815260206004820152600e60248201526d496e76616c69642063686f69636560901b6044820152606401610277565b6000838152600460205260408120805491610383836105a8565b909155505060408051338152602081018590529081018390527fe7b065412490d7bc97ecb5670949412095fff21ba368d79f16eb28ce69c0c8289060600160405180910390a1505050565b6103d6610447565b6001600160a01b03811661043b5760405162461bcd60e51b815260206004820152602660248201527f4f776e61626c653a206e6577206f776e657220697320746865207a65726f206160448201526564647265737360d01b6064820152608401610277565b610444816104a1565b50565b6000546001600160a01b031633146101f35760405162461bcd60e51b815260206004820181905260248201527f4f776e61626c653a2063616c6c6572206973206e6f7420746865206f776e65726044820152606401610277565b600080546001600160a01b038381166001600160a01b0319831681178455604051919092169283917f8be0079c531659141344cd1fd0a4f28419497f9722a3daafe3b4186f6b6457e09190a35050565b60006020828403121561050357600080fd5b81356001600160a01b038116811461051a57600080fd5b9392505050565b60006020828403121561053357600080fd5b5035919050565b600080600061014080858703121561055157600080fd5b843593506020850135925085818601111561056b57600080fd5b506040840190509250925092565b634e487b7160e01b600052601160045260246000fd5b808201808211156105a2576105a2610579565b92915050565b6000600182016105ba576105ba610579565b506001019056fea26469706673582212200f420b98beb433652d69b02ab74603b0fb08ff5c8f51d8eaca8437e385ce1ab364736f6c63430008130033",
  "linkReferences": {},
  "deployedLinkReferences": {}
}