{
  "_format": "hh-sol-artifact-1",
  "contractName": "ZKVoting",
  "sourceName": "contracts/ZKVoting.sol",
  "abi": [
    {
      "inputs": [
        {
          "internalType": "uint256",
          "name": "_choiceCount",
          "type": "uint256"
        }
      ],
      "stateMutability": "nonpayable",
      "type": "constructor"
    },
    {
      "anonymous": false,
      "inputs": [
        {
          "indexed": false,
          "internalType": "bytes32",
          "name": "voterRoot",
          "type": "bytes32"
        },
        {
          "indexed": false,
          "internalType": "bytes32",
          "name": "votedRoot",
          "type": "bytes32"
        }
      ],
      "name": "MerkleRootsUpdated",
      "type": "event"
    },
    {
      "anonymous": false,
      "inputs": [
        {
          "indexed": true,
          "internalType": "address",
          "name": "previousOwner",
          "type": "address"
        },
        {
          "indexed": true,
          "internalType": "address",
          "name": "newOwner",
          "type": "address"
        }
      ],
      "name": "OwnershipTransferred",
      "type": "event"
    },
    {
      "anonymous": false,
      "inputs": [
        {
          "indexed": false,
          "internalType": "address",
          "name": "voter",
          "type": "address"
        },
        {
          "indexed": false,
          "internalType": "uint256",
          "name": "choice",
          "type": "uint256"
        },
        {
          "indexed": false,
          "internalType": "bytes32",
          "name": "nullifierHash",
          "type": "bytes32"
        }
      ],
      "name": "VoteCast",
      "type": "event"
    },
    {
      "inputs": [],
      "name": "choiceCount",
      "outputs": [
        {
          "internalType": "uint256",
          "name": "",
          "type": "uint256"
        }
      ],
      "stateMutability": "view",
      "type": "function"
    },
    {
      "inputs": [],
      "name": "getTotalVotes",
      "outputs": [
        {
          "internalType": "uint256",
          "name": "",
          "type": "uint256"
        }
      ],
      "stateMutability": "view",
      "type": "function"
    },
    {
      "inputs": [
        {
          "internalType": "uint256",
          "name": "_choice",
          "type": "uint256"
        }
      ],
      "name": "getVoteCount",
      "outputs": [
        {
          "internalType": "uint256",
          "name": "",
          "type": "uint256"
        }
      ],
      "stateMutability": "view",
      "type": "function"
    },
    {
      "inputs": [
        {
          "internalType": "address",
          "name": "",
          "type": "address"
        }
      ],
      "name": "hasVoted",
      "outputs": [
        {
          "internalType": "bool",
          "name": "",
          "type": "bool"
        }
      ],
      "stateMutability": "view",
      "type": "function"
    },
    {
      "inputs": [],
      "name": "owner",
      "outputs": [
        {
          "internalType": "address",
          "name": "",
          "type": "address"
        }
      ],
      "stateMutability": "view",
      "type": "function"
    },
    {
      "inputs": [],
      "name": "renounceOwnership",
      "outputs": [],
      "stateMutability": "nonpayable",
      "type": "function"
    },
    {
      "inputs": [
        {
          "internalType": "bytes32",
          "name": "_newRoot",
          "type": "bytes32"
        }
      ],
      "name": "setVotedMerkleRoot",
      "outputs": [],
      "stateMutability": "nonpayable",
      "type": "function"
    },
    {
      "inputs": [
        {
          "internalType": "bytes32",
          "name": "_newRoot",
          "type": "bytes32"
        }
      ],
      "name": "setVoterMerkleRoot",
      "outputs": [],
      "stateMutability": "nonpayable",
      "type": "function"
    },
    {
      "inputs": [
        {
          "internalType": "address",
          "name": "newOwner",
          "type": "address"
        }
      ],
      "name": "transferOwnership",
      "outputs": [],
      "stateMutability": "nonpayable",
      "type": "function"
    },
    {
      "inputs": [
        {
          "internalType": "uint256",
          "name": "_choice",
          "type": "uint256"
        },
        {
          "internalType": "bytes32",
          "name": "_nullifierHash",
          "type": "bytes32"
        },
        {
          "internalType": "bytes32[8]",
          "name": "_proof",
          "type": "bytes32[8]"
        }
      ],
      "name": "vote",
      "outputs": [],
      "stateMutability": "nonpayable",
      "type": "function"
    },
    {
      "inputs": [
        {
          "internalType": "uint256",
          "name": "",
          "type": "uint256"
        }
      ],
      "name": "voteCounts",
      "outputs": [
        {
          "internalType": "uint256",
          "name": "",
          "type": "uint256"
        }
      ],
      "stateMutability": "view",
      "type": "function"
    },
    {
      "inputs": [],
      "name": "votedMerkleRoot",
      "outputs": [
        {
          "internalType": "bytes32",
          "name": "",
          "type": "bytes32"
        }
      ],
      "stateMutability": "view",
      "type": "function"
    },
    {
      "inputs": [],
      "name": "voterMerkleRoot",
      "outputs": [
        {
          "internalType": "bytes32",
          "name": "",
          "type": "bytes32"
        }
      ],
      "stateMutability": "view",
      "type": "function"
    }
  ],
  "bytecode": "0x60803461006357601f61063d38819003918201601f19168301916001600160401b038311848410176100685780849260209460405283398101031261006357516100483361007e565b6100513361007e565b60035560405161057790816100c68239f35b600080fd5b634e487b7160e01b600052604160045260246000fd5b600080546001600160a01b039283166001600160a01b03198216811783559216907f8be0079c531659141344cd1fd0a4f28419497f9722a3daafe3b4186f6b6457e09080a356fe608060408181526004908136101561001657600080fd5b600092833560e01c90816309eef43e1461044b57508063240815b71461042c5780632a69fb461461040d5780633c3a220d146103e657806364b200c1146103c7578063715018a61461036a5780638da5cb5b146103425780639a0e7d66146102d8578063b2c2f2e8146102a4578063c77956bd14610251578063dd97c510146101ff578063ec37c3e51461017f5763f2fde38b146100b357600080fd5b3461017b57602036600319011261017b576001600160a01b03823581811693919290849003610177576100e4610487565b831561012557505082546001600160a01b0319811683178455167f8be0079c531659141344cd1fd0a4f28419497f9722a3daafe3b4186f6b6457e08380a380f35b906020608492519162461bcd60e51b8352820152602660248201527f4f776e61626c653a206e6577206f776e657220697320746865207a65726f206160448201526564647265737360d01b6064820152fd5b8480fd5b8280fd5b50903461017b5761014036600319011261017b57803536610144116101fb577fe7b065412490d7bc97ecb5670949412095fff21ba368d79f16eb28ce69c0c828926060926101d060035484106104df565b8286526020528085206101e3815461051c565b9055805191338352602083015260243590820152a180f35b8380fd5b503461017b57602036600319011261017b577f95a640352dcd90c4adfb94305e024b7754d086930a98dd85b8807e6b10de3213913561023c610487565b8060015560025482519182526020820152a180f35b503461017b57602036600319011261017b577f95a640352dcd90c4adfb94305e024b7754d086930a98dd85b8807e6b10de3213913561028e610487565b806002556001549082519182526020820152a180f35b50903461017b57602036600319011261017b57602092818392356102cb60035482106104df565b8252845220549051908152f35b5082903461033e578160031936011261033e578180600354905b818310610303576020858551908152f35b9091938482528560205283822054810180911161032b57610324909461051c565b91906102f2565b634e487b7160e01b825260118652602482fd5b5080fd5b83823461033e578160031936011261033e57905490516001600160a01b039091168152602090f35b83346103c457806003193601126103c457610383610487565b80546001600160a01b03198116825581906001600160a01b03167f8be0079c531659141344cd1fd0a4f28419497f9722a3daafe3b4186f6b6457e08280a380f35b80fd5b83823461033e578160031936011261033e576020906002549051908152f35b50903461017b57602036600319011261017b57602092818392358252845220549051908152f35b83823461033e578160031936011261033e576020906001549051908152f35b83823461033e578160031936011261033e576020906003549051908152f35b929050346101fb5760203660031901126101fb57356001600160a01b038116908190036101fb5783526005602090815292205460ff1615158152f35b6000546001600160a01b0316330361049b57565b606460405162461bcd60e51b815260206004820152602060248201527f4f776e61626c653a2063616c6c6572206973206e6f7420746865206f776e65726044820152fd5b156104e657565b60405162461bcd60e51b815260206004820152600e60248201526d496e76616c69642063686f69636560901b6044820152606490fd5b600019811461052b5760010190565b634e487b7160e01b600052601160045260246000fdfea2646970667358221220914af7fcb5682bf9a147e29d78096d8792df840feb33445bdb8b925227993a9864736f6c63430008130033",
  "linkReferences": {},
  "deployedLinkReferences": {}
}